:100000000C942E000C9488000C9488000C948800AA
:100010000C9488000C9488000C9488000C94880040
:100020000C9488000C9488000C9488000C94880030
:100030000C9488000C9488000C9488000C94880020
:100040000C9488000C9488000C9488000C94880010
:100050000C9488000060006A0001140011241FBE87
:10006000CFE5D8E0DEBFCDBFE4E5F0E040E017C06B
:10007000B591A59135912591059107FD0CC09591FC
:100080008591EF01F92FE82F05900D92A217B30784
:10009000D9F7FE0104C01D92A217B307E1F7EB35B3
:1000A000F40731F70E9458000C945600F894FFCFE3
:1000B000CF93DF93CDB7DEB72A970FB6F894DEBFA4
:1000C0000FBECDBF8AB38FEF8ABB8BBB8AE0E0E661
:1000D000F0E0DE01119601900D928A95E1F780E043
:1000E00090E012C0E1E0F0E0EC0FFD1FE80FF91F17
:1000F00020812BBB2FEF39E648E1215030404040B2
:10010000E1F700C0000001968A3091055CF3E7CF6B
:040110000C9400004B
:0A011400C0F9A4B0999282F880901F
:00000001FF
